:020000040800F2
:1000000000500020D1030008950700089907000858
:100010009D070008A1070008A507000800000000D0
:10002000000000000000000000000000A907000818
:10003000AD07000800000000B1070008B507000880
:10004000190400081904000819040008190400081C
:10005000190400081904000819040008190400080C
:1000600019040008190400081904000819040008FC
:1000700019040008190400081904000819040008EC
:1000800019040008190400081904000819040008DC
:1000900019040008190400081904000819040008CC
:1000A00019040008190400081904000819040008BC
:1000B000650700081904000819040008190400085D
:1000C000190400081904000819040008190400089C
:1000D000190400081904000819040008190400088C
:1000E00019040008190400081904000800000000A1
:1000F0000000000000000000000000000000000000
:0C01000000000000000000005FF808F1A3
:10010C0010B5054C237833B9044B13B10448AFF345
:10011C0000800123237010BD280400200000000083
:10012C00F4080008084B10B51BB108490848AFF398
:10013C0000800848036803B910BD074B002BFBD0A7
:10014C00BDE81040184700BF000000002C04002040
:10015C00F4080008280400200000000040F0BF60F4
:10016C0040F40030014BD860704700BF00ED00E058
:10017C00C378FBB1154BDB68DB43C3F30223C3F13C
:10018C0004010F22DA40437803FA01F1837813401B
:10019C000B431B010278DBB20D490A4482F8003391
:1001AC000378580903F01F03012202FA03F341F804
:1001BC002030704703785A0903F01F03012101FA1C
:1001CC0003F32032024941F82230704700ED00E081
:1001DC0000E100E0F0B4CB7803F00F02154613F009
:1001EC00100F01D08D7815430B78E3B1066800230E
:1001FC0016E001229A400C8832EA04040FD19C00CC
:10020C000F27A74026EA070605FA04F42643CC7804
:10021C00282C01D1426102E0482C00D1026101334B
:10022C00072BE6D906600B88FF2B1ED946680023E6
:10023C0018E003F108040122A2400C8832EA0404FD
:10024C000FD19C000F27A74026EA070605FA04F4F5
:10025C002643CC78282C00D14261CC78482C00D194
:10026C0002610133072BE4D94660F0BC704700BF34
:10027C008368194201D0012070470020704700BFED
:10028C000AB1016170474161704700BF21B1054B54
:10029C009A69104398617047024A936923EA0000F7
:1002AC00906170470010024021B1054BDA69104390
:1002BC00D8617047024AD36923EA0000D0617047C5
:1002CC000010024003889BB2214A904212D002F5E2
:1002DC00006290420ED0B0F1804F0BD0A2F5983254
:1002EC00904207D002F58062904203D002F5806202
:1002FC00904203D123F070034A881343154A90426D
:10030C0008D002F58062904204D023F440739BB273
:10031C00CA88134303808B8883850B8803850C4B19
:10032C0098420FD003F5006398420BD003F540635D
:10033C00984207D003F58063984203D003F580639D
:10034C00984201D10B7A038601238382704700BF48
:10035C00002C01400010004029B103889BB243F0EF
:10036C0001030380704703889BB223F001039BB207
:10037C000380704722B183899BB2194381817047F6
:10038C008389C94389B219408181704703899BB223
:10039C0023F007039BB20381704700BFC94389B2A6
:1003AC0001827047028A83890B40114202D01BB92B
:1003BC00002070470020704701207047C94389B264
:1003CC000182704700F08AF80B480C490C4A002354
:1003DC0002E0D458C4500433C4188C42F9D3094AEF
:1003EC00094C002301E013600432A242FBD300F05D
:1003FC00DDF900F01BF970470000002028040020F4
:10040C001C0900082804002048040020FEE7000016
:10041C0082B00023019300932C4A136843F4803379
:10042C0013602A4B1B6803F400330093019B0133C8
:10043C000193009B1BB9019BB3F5A06FF1D1234B2A
:10044C001B6813F4003F02D00123009301E000234A
:10045C000093009B012B36D11D4B1A6842F0100201
:10046C001A601A6822F007021A601A6842F0020237
:10047C001A60A3F580535A685A605A685A605A68D1
:10048C0042F480625A605A6822F47C125A605A68AC
:10049C0042F4E8125A601A6842F080721A600B4BF0
:1004AC001B6813F0007FFAD0084B5A6822F0030245
:1004BC005A605A6842F002025A60044B5B6803F0BF
:1004CC000C03082BF9D102B0704700BF001002409A
:1004DC000020024008B5FFF79BFF08BD08B5104B84
:1004EC001A6842F001021A6059680E4A0A405A60B2
:1004FC001A6822F0847222F480321A601A6822F48C
:10050C0080221A605A6822F4FE025A604FF41F02CD
:10051C009A60FFF7DFFF4FF00062034B9A6008BD53
:10052C00001002400000FFF800ED00E010B5064C92
:10053C00002210212046FFF7A3FE002204212046B2
:10054C00FFF79EFE10BD00BF0014014010B5064C15
:10055C00012210212046FFF793FE012204212046A0
:10056C00FFF78EFE10BD00BF0014014010B5012234
:10057C004FF400610A48FFF783FE0A4C0022012168
:10058C002046FFF77DFE012240212046FFF778FE32
:10059C0000224FF400710448FFF772FE10BD00BF3B
:1005AC0000100140001401400020014010B5002251
:1005BC004FF400610A48FFF763FE0A4C0122114612
:1005CC002046FFF75DFE012240212046FFF758FE32
:1005DC0000224FF400710448FFF752FE10BD00BF1B
:1005EC0000100140001401400020014010B5012210
:1005FC004FF400610A48FFF743FE0A4C0022012128
:10060C002046FFF73DFE002240212046FFF738FE32
:10061C0001224FF400710448FFF732FE10BD00BFF9
:10062C0000100140001401400020014070B588B05A
:10063C0001211020FFF72AFE4FF40063ADF81C30A7
:10064C0010258DF81F5003248DF81E403E4E07A92F
:10065C003046FFF7BFFD01212020FFF717FE552381
:10066C00ADF818308DF81B508DF81A4006A9374894
:10067C00FFF7B0FD01214FF48070FFF707FE4FF438
:10068C000073ADF814308DF817508DF8164005A98D
:10069C002F48FFF79FFD01210420FFF7F7FD07A965
:1006AC003046FFF797FD01210846FFF7FDFD4FF09F
:1006BC008040FFF76BFE2723ADF80C3040F2CF23C0
:1006CC00ADF808300024ADF80E40ADF80A4002A990
:1006DC004FF08040FFF7F6FD01214FF08040FFF70F
:1006EC005DFE012211464FF08040FFF743FE4FF4B0
:1006FC00A060FFF733FD1C238DF804308DF8054006
:10070C008DF8064001248DF8074001A8FFF730FD55
:10071C0021464FF08040FFF71FFEFFF707FFFFF762
:10072C0025FF02210B48FFF7A3FD012801D1FFF79C
:10073C003DFF08210748FFF79BFD012801D1FFF77A
:10074C0055FFFFF703FFEAE70010014000140140DA
:10075C00002001400008014008B501214FF0804005
:10076C00FFF720FE01280BD1064A92F90030B3FAAC
:10077C0083F35B09137001214FF08040FFF71EFEDD
:10078C0008BD00BF44040020704700BFFEE700BF57
:10079C00FEE700BFFEE700BFFEE700BF704700BFEB
:1007AC00704700BF704700BF704700BF70B50F4E59
:1007BC000F4D761BB61018BF002405D0013455F828
:1007CC00043B9847A642F9D10A4E0B4D00F08CF829
:1007DC00761BB61018BF002406D0013455F8043B24
:1007EC009847A642F9D170BD70BD00BF1009000832
:1007FC00100900081809000810090008024B13B171
:10080C00024800F005B870470000000029080008F5
:10081C00002301461A46184600F014B838B5074DA7
:10082C00074C2C1BA41005D0013C55F8043D9847EF
:10083C00002CF9D1BDE8384000F05CB81C09000868
:10084C00180900082DE9F047254C0646256888460E
:10085C00D5F8484192469946C4B360681F2817DC06
:10086C00411C76B104EB8003C3F888A0D4F88851FE
:10087C00012282401543022EC4F88851C3F8089116
:10088C001ED0831C6160002044F82380BDE8F087F3
:10089C00144B03B34FF4C870AFF300800446D0B1CF
:1008AC00D5F84831002784E888003846C5F8484117
:1008BC000121C4F88871C4F88C71002EE1D0D1E705
:1008CC00D4F88C311A43C4F88C21DAE705F5A674F8
:1008DC00C5F84841C1E74FF0FF30BDE8F08700BFD5
:1008EC000C09000800000000F8B500BFF8BC08BCFB
:1008FC009E467047F8B500BFF8BC08BC9E467047D2
:04090C0000000020C7
:0809100009080008310100088C
:040918000D010008C5
:10091C0000000000EC02002054030020BC03002067
:10092C0000000000000000000000000000000000BB
:10093C0000000000000000000000000000000000AB
:10094C00000000000000000000000000000000009B
:10095C00000000000000000000000000000000008B
:10096C00000000000000000000000000000000007B
:10097C00000000000000000000000000000000006B
:10098C00000000000000000000000000000000005B
:10099C00000000000000000000000000000000004B
:1009AC00000000000000000000000000000000003B
:1009BC00000000000000000001000000000000002A
:1009CC000E33CDAB34126DE6ECDE05000B000000EF
:1009DC00000000000000000000000000000000000B
:1009EC0000000000000000000000000000000000FB
:1009FC0000000000000000000000000000000000EB
:100A0C0000000000000000000000000000000000DA
:04000005080003D11B
:00000001FF
